{
  "contractName": "Users",
  "abi": [
    {
      "constant": true,
      "inputs": [
        {
          "name": "",
          "type": "uint256"
        }
      ],
      "name": "users",
      "outputs": [
        {
          "name": "name",
          "type": "string"
        },
        {
          "name": "status",
          "type": "bytes32"
        },
        {
          "name": "education",
          "type": "string"
        },
        {
          "name": "phone",
          "type": "string"
        },
        {
          "name": "competences",
          "type": "string"
        },
        {
          "name": "projects",
          "type": "string"
        },
        {
          "name": "walletAddress",
          "type": "address"
        },
        {
          "name": "createdAt",
          "type": "uint256"
        },
        {
          "name": "updatedAt",
          "type": "uint256"
        }
      ],
      "payable": false,
      "stateMutability": "view",
      "type": "function"
    },
    {
      "constant": true,
      "inputs": [
        {
          "name": "",
          "type": "address"
        }
      ],
      "name": "usersIds",
      "outputs": [
        {
          "name": "",
          "type": "uint256"
        }
      ],
      "payable": false,
      "stateMutability": "view",
      "type": "function"
    },
    {
      "inputs": [],
      "payable": false,
      "stateMutability": "nonpayable",
      "type": "constructor"
    },
    {
      "anonymous": false,
      "inputs": [
        {
          "indexed": false,
          "name": "id",
          "type": "uint256"
        }
      ],
      "name": "newUserRegistered",
      "type": "event"
    },
    {
      "anonymous": false,
      "inputs": [
        {
          "indexed": false,
          "name": "id",
          "type": "uint256"
        }
      ],
      "name": "userUpdateEvent",
      "type": "event"
    },
    {
      "constant": false,
      "inputs": [
        {
          "name": "_userName",
          "type": "string"
        },
        {
          "name": "_status",
          "type": "bytes32"
        },
        {
          "name": "_education",
          "type": "string"
        },
        {
          "name": "_phone",
          "type": "string"
        },
        {
          "name": "_competences",
          "type": "string"
        },
        {
          "name": "_projects",
          "type": "string"
        }
      ],
      "name": "registerUser",
      "outputs": [
        {
          "name": "",
          "type": "uint256"
        }
      ],
      "payable": false,
      "stateMutability": "nonpayable",
      "type": "function"
    },
    {
      "constant": false,
      "inputs": [
        {
          "name": "_newUserName",
          "type": "string"
        },
        {
          "name": "_newStatus",
          "type": "bytes32"
        },
        {
          "name": "_newEducation",
          "type": "string"
        },
        {
          "name": "_newPhone",
          "type": "string"
        },
        {
          "name": "_newCompetences",
          "type": "string"
        },
        {
          "name": "_newProjects",
          "type": "string"
        }
      ],
      "name": "updateUser",
      "outputs": [
        {
          "name": "",
          "type": "uint256"
        }
      ],
      "payable": false,
      "stateMutability": "nonpayable",
      "type": "function"
    },
    {
      "constant": true,
      "inputs": [
        {
          "name": "_id",
          "type": "uint256"
        }
      ],
      "name": "getUserById",
      "outputs": [
        {
          "name": "",
          "type": "uint256"
        },
        {
          "name": "",
          "type": "string"
        },
        {
          "name": "",
          "type": "bytes32"
        },
        {
          "name": "",
          "type": "string"
        },
        {
          "name": "",
          "type": "string"
        },
        {
          "name": "",
          "type": "string"
        },
        {
          "name": "",
          "type": "string"
        },
        {
          "name": "",
          "type": "address"
        },
        {
          "name": "",
          "type": "uint256"
        },
        {
          "name": "",
          "type": "uint256"
        }
      ],
      "payable": false,
      "stateMutability": "view",
      "type": "function"
    },
    {
      "constant": true,
      "inputs": [],
      "name": "getOwnProfile",
      "outputs": [
        {
          "name": "",
          "type": "uint256"
        },
        {
          "name": "",
          "type": "string"
        },
        {
          "name": "",
          "type": "bytes32"
        },
        {
          "name": "",
          "type": "string"
        },
        {
          "name": "",
          "type": "string"
        },
        {
          "name": "",
          "type": "string"
        },
        {
          "name": "",
          "type": "string"
        },
        {
          "name": "",
          "type": "address"
        },
        {
          "name": "",
          "type": "uint256"
        },
        {
          "name": "",
          "type": "uint256"
        }
      ],
      "payable": false,
      "stateMutability": "view",
      "type": "function"
    },
    {
      "constant": true,
      "inputs": [],
      "name": "isRegistered",
      "outputs": [
        {
          "name": "",
          "type": "bool"
        }
      ],
      "payable": false,
      "stateMutability": "view",
      "type": "function"
    },
    {
      "constant": true,
      "inputs": [],
      "name": "totalUsers",
      "outputs": [
        {
          "name": "",
          "type": "uint256"
        }
      ],
      "payable": false,
      "stateMutability": "view",
      "type": "function"
    }
  ],
  "bytecode": "0x60806040523480156200001157600080fd5b506200008460006020604051908101604052806000815250600060206040519081016040528060008152506020604051908101604052806000815250602060405190810160405280600081525060206040519081016040528060008152506200047b640100000000026401000000009004565b50620001d4653333333333336040805190810160405280600a81526020017f4c75697320476f6d657a000000000000000000000000000000000000000000008152507f656e207061726f000000000000000000000000000000000000000000000000006040805190810160405280600381526020017f42555000000000000000000000000000000000000000000000000000000000008152506040805190810160405280600781526020017f36363636363636000000000000000000000000000000000000000000000000008152506040805190810160405280600581526020017f44616e63650000000000000000000000000000000000000000000000000000008152506040805190810160405280600381526020017f45434900000000000000000000000000000000000000000000000000000000008152506200047b640100000000026401000000009004565b5062000324651111111111116040805190810160405280600c81526020017f4a75616e2047617263c3ad6100000000000000000000000000000000000000008152507f74726162616a616e646f000000000000000000000000000000000000000000006040805190810160405280601b81526020017f46502049492073697374656d617320696e666f726d617469636f7300000000008152506040805190810160405280600781526020017f35353535353535000000000000000000000000000000000000000000000000008152506040805190810160405280600381526020017f53415000000000000000000000000000000000000000000000000000000000008152506040805190810160405280600681526020017f41697262757300000000000000000000000000000000000000000000000000008152506200047b640100000000026401000000009004565b5062000474652222222222226040805190810160405280600b81526020017f4d61726961204c6f70657a0000000000000000000000000000000000000000008152507f656e207061726f000000000000000000000000000000000000000000000000006040805190810160405280601781526020017f696e666f726d61746963612064652073697374656d61730000000000000000008152506040805190810160405280600781526020017f34343434343434000000000000000000000000000000000000000000000000008152506040805190810160405280600881526020017f736f6c69646974790000000000000000000000000000000000000000000000008152506040805190810160405280600481526020017f706f6c69000000000000000000000000000000000000000000000000000000008152506200047b640100000000026401000000009004565b50620008e6565b60008060008060008b73ffffffffffffffffffffffffffffffffffffffff1673ffffffffffffffffffffffffffffffffffffffff168152602001908152602001600020549150600082141515620004d157600080fd5b6001805490506000808c73ffffffffffffffffffffffffffffffffffffffff1673ffffffffffffffffffffffffffffffffffffffff16815260200190815260200160002081905550600180548091906001016200052f9190620006fb565b9050610120604051908101604052808a8152602001896000191681526020018881526020018781526020018681526020018581526020018b73ffffffffffffffffffffffffffffffffffffffff168152602001428152602001428152506001828154811015156200059c57fe5b90600052602060002090600902016000820151816000019080519060200190620005c892919062000730565b50602082015181600101906000191690556040820151816002019080519060200190620005f792919062000730565b5060608201518160030190805190602001906200061692919062000730565b5060808201518160040190805190602001906200063592919062000730565b5060a08201518160050190805190602001906200065492919062000730565b5060c08201518160060160006101000a81548173ffffffffffffffffffffffffffffffffffffffff021916908373ffffffffffffffffffffffffffffffffffffffff16021790555060e0820151816007015561010082015181600801559050507f2456c02735fb44894660d2af194ca5261385d8ee03675e1d75b0da1300a764cd816040518082815260200191505060405180910390a18092505050979650505050505050565b8154818355818111156200072b576009028160090283600052602060002091820191016200072a9190620007b7565b5b505050565b828054600181600116156101000203166002900490600052602060002090601f016020900481019282601f106200077357805160ff1916838001178555620007a4565b82800160010185558215620007a4579182015b82811115620007a357825182559160200191906001019062000786565b5b509050620007b3919062000872565b5090565b6200086f91905b808211156200086b5760008082016000620007da91906200089a565b6001820160009055600282016000620007f491906200089a565b6003820160006200080691906200089a565b6004820160006200081891906200089a565b6005820160006200082a91906200089a565b6006820160006101000a81549073ffffffffffffffffffffffffffffffffffffffff02191690556007820160009055600882016000905550600901620007be565b5090565b90565b6200089791905b808211156200089357600081600090555060010162000879565b5090565b90565b50805460018160011615610100020316600290046000825580601f10620008c25750620008e3565b601f016020900490600052602060002090810190620008e2919062000872565b5b50565b611c1280620008f66000396000f30060806040526004361061008e576000357c0100000000000000000000000000000000000000000000000000000000900463ffffffff1680631e9b3564146100935780632236684414610236578063365b98b2146102655780636ed6da9e1461050b578063b8e21a5b146107b8578063bff1f9e11461080f578063f60837d61461083a578063fd1b5158146109dd575b600080fd5b34801561009f57600080fd5b50610220600480360381019080803590602001908201803590602001908080601f01602080910402602001604051908101604052809392919081815260200183838082843782019150505050505091929192908035600019169060200190929190803590602001908201803590602001908080601f0160208091040260200160405190810160405280939291908181526020018383808284378201915050505050509192919290803590602001908201803590602001908080601f0160208091040260200160405190810160405280939291908181526020018383808284378201915050505050509192919290803590602001908201803590602001908080601f0160208091040260200160405190810160405280939291908181526020018383808284378201915050505050509192919290803590602001908201803590602001908080601f0160208091040260200160405190810160405280939291908181526020018383808284378201915050505050509192919290505050610c74565b6040518082815260200191505060405180910390f35b34801561024257600080fd5b5061024b610dc5565b604051808215151515815260200191505060405180910390f35b34801561027157600080fd5b5061029060048036038101908080359060200190929190505050610e0e565b60405180806020018a60001916600019168152602001806020018060200180602001806020018973ffffffffffffffffffffffffffffffffffffffff1673ffffffffffffffffffffffffffffffffffffffff16815260200188815260200187815260200186810386528f818151815260200191508051906020019080838360005b8381101561032c578082015181840152602081019050610311565b50505050905090810190601f1680156103595780820380516001836020036101000a031916815260200191505b5086810385528d818151815260200191508051906020019080838360005b83811015610392578082015181840152602081019050610377565b50505050905090810190601f1680156103bf5780820380516001836020036101000a031916815260200191505b5086810384528c818151815260200191508051906020019080838360005b838110156103f85780820151818401526020810190506103dd565b50505050905090810190601f1680156104255780820380516001836020036101000a031916815260200191505b5086810383528b818151815260200191508051906020019080838360005b8381101561045e578082015181840152602081019050610443565b50505050905090810190601f16801561048b5780820380516001836020036101000a031916815260200191505b5086810382528a818151815260200191508051906020019080838360005b838110156104c45780820151818401526020810190506104a9565b50505050905090810190601f1680156104f15780820380516001836020036101000a031916815260200191505b509e50505050505050505050505050505060405180910390f35b34801561051757600080fd5b5061053660048036038101908080359060200190929190505050611183565b604051808b8152602001806020018a60001916600019168152602001806020018060200180602001806020018973ffffffffffffffffffffffffffffffffffffffff1673ffffffffffffffffffffffffffffffffffffffff16815260200188815260200187815260200186810386528f818151815260200191508051906020019080838360005b838110156105d85780820151818401526020810190506105bd565b50505050905090810190601f1680156106055780820380516001836020036101000a031916815260200191505b5086810385528d818151815260200191508051906020019080838360005b8381101561063e578082015181840152602081019050610623565b50505050905090810190601f16801561066b5780820380516001836020036101000a031916815260200191505b5086810384528c818151815260200191508051906020019080838360005b838110156106a4578082015181840152602081019050610689565b50505050905090810190601f1680156106d15780820380516001836020036101000a031916815260200191505b5086810383528b818151815260200191508051906020019080838360005b8381101561070a5780820151818401526020810190506106ef565b50505050905090810190601f1680156107375780820380516001836020036101000a031916815260200191505b5086810382528a818151815260200191508051906020019080838360005b83811015610770578082015181840152602081019050610755565b50505050905090810190601f16801561079d5780820380516001836020036101000a031916815260200191505b509f5050505050505050505050505050505060405180910390f35b3480156107c457600080fd5b506107f9600480360381019080803573ffffffffffffffffffffffffffffffffffffffff1690602001909291905050506115ed565b6040518082815260200191505060405180910390f35b34801561081b57600080fd5b50610824611605565b6040518082815260200191505060405180910390f35b34801561084657600080fd5b506109c7600480360381019080803590602001908201803590602001908080601f01602080910402602001604051908101604052809392919081815260200183838082843782019150505050505091929192908035600019169060200190929190803590602001908201803590602001908080601f0160208091040260200160405190810160405280939291908181526020018383808284378201915050505050509192919290803590602001908201803590602001908080601f0160208091040260200160405190810160405280939291908181526020018383808284378201915050505050509192919290803590602001908201803590602001908080601f0160208091040260200160405190810160405280939291908181526020018383808284378201915050505050509192919290803590602001908201803590602001908080601f0160208091040260200160405190810160405280939291908181526020018383808284378201915050505050509192919290505050611614565b6040518082815260200191505060405180910390f35b3480156109e957600080fd5b506109f2611631565b604051808b8152602001806020018a60001916600019168152602001806020018060200180602001806020018973ffffffffffffffffffffffffffffffffffffffff1673ffffffffffffffffffffffffffffffffffffffff16815260200188815260200187815260200186810386528f818151815260200191508051906020019080838360005b83811015610a94578082015181840152602081019050610a79565b50505050905090810190601f168015610ac15780820380516001836020036101000a031916815260200191505b5086810385528d818151815260200191508051906020019080838360005b83811015610afa578082015181840152602081019050610adf565b50505050905090810190601f168015610b275780820380516001836020036101000a031916815260200191505b5086810384528c818151815260200191508051906020019080838360005b83811015610b60578082015181840152602081019050610b45565b50505050905090810190601f168015610b8d5780820380516001836020036101000a031916815260200191505b5086810383528b818151815260200191508051906020019080838360005b83811015610bc6578082015181840152602081019050610bab565b50505050905090810190601f168015610bf35780820380516001836020036101000a031916815260200191505b5086810382528a818151815260200191508051906020019080838360005b83811015610c2c578082015181840152602081019050610c11565b50505050905090810190601f168015610c595780820380516001836020036101000a031916815260200191505b509f5050505050505050505050505050505060405180910390f35b6000806000610c81610dc5565b1515610c8c57600080fd5b6000803373ffffffffffffffffffffffffffffffffffffffff1673ffffffffffffffffffffffffffffffffffffffff168152602001908152602001600020549150600182815481101515610cdc57fe5b9060005260206000209060090201905088816000019080519060200190610d04929190611933565b508781600101816000191690555086816002019080519060200190610d2a929190611933565b5085816003019080519060200190610d43929190611933565b5084816004019080519060200190610d5c929190611933565b5083816005019080519060200190610d75929190611933565b504281600801819055507f179dda4b314caed68129a8b8bbd77c7a4fb092c2d9fb3de452a4f8e4839dc876826040518082815260200191505060405180910390a181925050509695505050505050565b6000806000803373ffffffffffffffffffffffffffffffffffffffff1673ffffffffffffffffffffffffffffffffffffffff168152602001908152602001600020541415905090565b600181815481101515610e1d57fe5b9060005260206000209060090201600091509050806000018054600181600116156101000203166002900480601f016020809104026020016040519081016040528092919081815260200182805460018160011615610100020316600290048015610ec95780601f10610e9e57610100808354040283529160200191610ec9565b820191906000526020600020905b815481529060010190602001808311610eac57829003601f168201915b505050505090806001015490806002018054600181600116156101000203166002900480601f016020809104026020016040519081016040528092919081815260200182805460018160011615610100020316600290048015610f6d5780601f10610f4257610100808354040283529160200191610f6d565b820191906000526020600020905b815481529060010190602001808311610f5057829003601f168201915b505050505090806003018054600181600116156101000203166002900480601f01602080910402602001604051908101604052809291908181526020018280546001816001161561010002031660029004801561100b5780601f10610fe05761010080835404028352916020019161100b565b820191906000526020600020905b815481529060010190602001808311610fee57829003601f168201915b505050505090806004018054600181600116156101000203166002900480601f0160208091040260200160405190810160405280929190818152602001828054600181600116156101000203166002900480156110a95780601f1061107e576101008083540402835291602001916110a9565b820191906000526020600020905b81548152906001019060200180831161108c57829003601f168201915b505050505090806005018054600181600116156101000203166002900480601f0160208091040260200160405190810160405280929190818152602001828054600181600116156101000203166002900480156111475780601f1061111c57610100808354040283529160200191611147565b820191906000526020600020905b81548152906001019060200180831161112a57829003601f168201915b5050505050908060060160009054906101000a900473ffffffffffffffffffffffffffffffffffffffff16908060070154908060080154905089565b600060606000606080606080600080600061119c6119b3565b60008c11806111b057506001805490508c11155b15156111bb57600080fd5b60018c8154811015156111ca57fe5b90600052602060002090600902016101206040519081016040529081600082018054600181600116156101000203166002900480601f01602080910402602001604051908101604052809291908181526020018280546001816001161561010002031660029004801561127e5780601f106112535761010080835404028352916020019161127e565b820191906000526020600020905b81548152906001019060200180831161126157829003601f168201915b50505050508152602001600182015460001916600019168152602001600282018054600181600116156101000203166002900480601f0160208091040260200160405190810160405280929190818152602001828054600181600116156101000203166002900480156113325780601f1061130757610100808354040283529160200191611332565b820191906000526020600020905b81548152906001019060200180831161131557829003601f168201915b50505050508152602001600382018054600181600116156101000203166002900480601f0160208091040260200160405190810160405280929190818152602001828054600181600116156101000203166002900480156113d45780601f106113a9576101008083540402835291602001916113d4565b820191906000526020600020905b8154815290600101906020018083116113b757829003601f168201915b50505050508152602001600482018054600181600116156101000203166002900480601f0160208091040260200160405190810160405280929190818152602001828054600181600116156101000203166002900480156114765780601f1061144b57610100808354040283529160200191611476565b820191906000526020600020905b81548152906001019060200180831161145957829003601f168201915b50505050508152602001600582018054600181600116156101000203166002900480601f0160208091040260200160405190810160405280929190818152602001828054600181600116156101000203166002900480156115185780601f106114ed57610100808354040283529160200191611518565b820191906000526020600020905b8154815290600101906020018083116114fb57829003601f168201915b505050505081526020016006820160009054906101000a900473ffffffffffffffffffffffffffffffffffffffff1673ffffffffffffffffffffffffffffffffffffffff1673ffffffffffffffffffffffffffffffffffffffff1681526020016007820154815260200160088201548152505090508b816000015182602001518360400151846060015185608001518660a001518760c001518860e001518961010001518898508696508595508494508393509a509a509a509a509a509a509a509a509a509a50509193959799509193959799565b60006020528060005260406000206000915090505481565b60006001808054905003905090565b6000611625338888888888886116c1565b90509695505050505050565b60006060600060608060608060008060008061164b610dc5565b151561165657600080fd5b6000803373ffffffffffffffffffffffffffffffffffffffff1673ffffffffffffffffffffffffffffffffffffffff1681526020019081526020016000205490506116a081611183565b9a509a509a509a509a509a509a509a509a509a505090919293949596979899565b60008060008060008b73ffffffffffffffffffffffffffffffffffffffff1673ffffffffffffffffffffffffffffffffffffffff16815260200190815260200160002054915060008214151561171657600080fd5b6001805490506000808c73ffffffffffffffffffffffffffffffffffffffff1673ffffffffffffffffffffffffffffffffffffffff16815260200190815260200160002081905550600180548091906001016117729190611a19565b9050610120604051908101604052808a8152602001896000191681526020018881526020018781526020018681526020018581526020018b73ffffffffffffffffffffffffffffffffffffffff168152602001428152602001428152506001828154811015156117de57fe5b90600052602060002090600902016000820151816000019080519060200190611808929190611a4b565b50602082015181600101906000191690556040820151816002019080519060200190611835929190611a4b565b506060820151816003019080519060200190611852929190611a4b565b50608082015181600401908051906020019061186f929190611a4b565b5060a082015181600501908051906020019061188c929190611a4b565b5060c08201518160060160006101000a81548173ffffffffffffffffffffffffffffffffffffffff021916908373ffffffffffffffffffffffffffffffffffffffff16021790555060e0820151816007015561010082015181600801559050507f2456c02735fb44894660d2af194ca5261385d8ee03675e1d75b0da1300a764cd816040518082815260200191505060405180910390a18092505050979650505050505050565b828054600181600116156101000203166002900490600052602060002090601f016020900481019282601f1061197457805160ff19168380011785556119a2565b828001600101855582156119a2579182015b828111156119a1578251825591602001919060010190611986565b5b5090506119af9190611acb565b5090565b61012060405190810160405280606081526020016000801916815260200160608152602001606081526020016060815260200160608152602001600073ffffffffffffffffffffffffffffffffffffffff16815260200160008152602001600081525090565b815481835581811115611a4657600902816009028360005260206000209182019101611a459190611af0565b5b505050565b828054600181600116156101000203166002900490600052602060002090601f016020900481019282601f10611a8c57805160ff1916838001178555611aba565b82800160010185558215611aba579182015b82811115611ab9578251825591602001919060010190611a9e565b5b509050611ac79190611acb565b5090565b611aed91905b80821115611ae9576000816000905550600101611ad1565b5090565b90565b611b9b91905b80821115611b975760008082016000611b0f9190611b9e565b6001820160009055600282016000611b279190611b9e565b600382016000611b379190611b9e565b600482016000611b479190611b9e565b600582016000611b579190611b9e565b6006820160006101000a81549073ffffffffffffffffffffffffffffffffffffffff02191690556007820160009055600882016000905550600901611af6565b5090565b90565b50805460018160011615610100020316600290046000825580601f10611bc45750611be3565b601f016020900490600052602060002090810190611be29190611acb565b5b505600a165627a7a7230582025d74ab02c37aa29b3f0c31c802645369f7eda5b24ed2f1908886856a04425630029",
  "source": "pragma solidity ^0.4.21;\n\n\n\ncontract Users {\n    // data structure that stores a user\n    struct User {\n        string name;\n        bytes32 status;\n        string education;\n        string phone;\n        string competences;\n        string projects;\n        address walletAddress;\n        uint createdAt;\n        uint updatedAt;\n    }\n\n    // it maps the user's wallet address with the user ID\n    mapping (address => uint) public usersIds;\n\n    // Array of User that holds the list of users and their details\n    User[] public users;\n\n    // event fired when an user is registered\n    event newUserRegistered(uint id);\n\n    // event fired when the user updates his status or name\n    event userUpdateEvent(uint id);\n\n\n\n    // Modifier: check if the caller of the smart contract is registered\n    modifier checkSenderIsRegistered {\n    \trequire(isRegistered());\n    \t_;\n    }\n\n\n\n    /**\n     * Constructor function\n     */\n    constructor() public\n    {\n        // NOTE: the first user MUST be emtpy\n        addUser(0x0, \"\", \"\", \"\", \"\", \"\", \"\");\n\n        // Some dummy data\n        addUser(0x333333333333, \"Luis Gomez\", \"en paro\", \"BUP\", \"6666666\", \"Dance\", \"ECI\");\n        addUser(0x111111111111, \"Juan Garca\", \"trabajando\", \"FP II sistemas informaticos\", \"5555555\", \"SAP\", \"Airbus\");\n        addUser(0x222222222222, \"Maria Lopez\", \"en paro\", \"informatica de sistemas\", \"4444444\", \"solidity\", \"poli\");\n    }\n\n\n\n    /**\n     * Function to register a new user.\n     *\n     * @param _userName \t\tThe displaying name\n     * @param _status        The status of the user\n     * @param _education     The education of the user\n     * @param _phone         the phone of the user\n     * @param _competences   the competences of the user\n     * @param _projects      the projects of the user\n     */\n    function registerUser(string _userName, bytes32 _status, string _education, string _phone, string _competences, string _projects) public\n    returns(uint)\n    {\n    \treturn addUser(msg.sender, _userName, _status, _education, _phone, _competences, _projects);\n    }\n\n\n\n    /**\n     * Add a new user. This function must be private because an user\n     * cannot insert another user on behalf of someone else.\n     *\n     * @param _wAddr \t\tAddress wallet of the user\n     * @param _userName\t\tDisplaying name of the user\n     * @param _status    \tStatus of the user\n     * @param _education  \teducation of the user\n     * @param _phone        phone of the user\n     * @param _competences  competences of the user\n     * @param _projects     projects of the user\n     */\n    function addUser(address _wAddr, string _userName, bytes32 _status, string _education, string _phone, string _competences, string _projects) private\n    returns(uint)\n    {\n        // checking if the user is already registered\n        uint userId = usersIds[_wAddr];\n        require (userId == 0);\n\n        // associating the user wallet address with the new ID\n        usersIds[_wAddr] = users.length;\n        uint newUserId = users.length++;\n\n        // storing the new user details\n        users[newUserId] = User({\n        \tname: _userName,\n        \tstatus: _status,\n            education: _education,\n            phone: _phone,\n            competences: _competences,\n            projects: _projects,\n        \twalletAddress: _wAddr,\n        \tcreatedAt: now,\n        \tupdatedAt: now\n        });\n\n        // emitting the event that a new user has been registered\n        emit newUserRegistered(newUserId);\n\n        return newUserId;\n    }\n\n\n\n    /**\n     * Update the user profile of the caller of this method.\n     * Note: the user can modify only his own profile.\n     *\n     * @param _newUserName\tThe new user's displaying name\n     * @param _newStatus \tThe new user's status\n     * @param _newEducation The new user's education\n     * @param _newPhone     the new user's phone\n     * @param _newCompetences the new user's competences\n     * @param _newProjects the new user's projects\n     */\n    function updateUser(string _newUserName, bytes32 _newStatus, string _newEducation, string _newPhone, string _newCompetences, string _newProjects) checkSenderIsRegistered public\n    returns(uint)\n    {\n    \t// An user can modify only his own profile.\n    \tuint userId = usersIds[msg.sender];\n\n    \tUser storage user = users[userId];\n\n    \tuser.name = _newUserName;\n    \tuser.status = _newStatus;\n        user.education = _newEducation;\n        user.phone = _newPhone;\n        user.competences = _newCompetences;\n        user.projects = _newProjects;\n    \tuser.updatedAt = now;\n\n    \temit userUpdateEvent(userId);\n\n    \treturn userId;\n    }\n\n\n\n    /**\n     * Get the user's profile information.\n     *\n     * @param _id \tThe ID of the user stored on the blockchain.\n     */\n    function getUserById(uint _id) public view\n    returns(\n    \tuint,\n    \tstring,\n    \tbytes32,\n        string,\n        string,\n        string,\n        string,\n    \taddress,\n    \tuint,\n    \tuint\n    ) {\n    \t// checking if the ID is valid\n    \trequire( (_id > 0) || (_id <= users.length) );\n\n    \tUser memory i = users[_id];\n\n    \treturn (\n    \t\t_id,\n    \t\ti.name,\n    \t\ti.status,\n            i.education,\n            i.phone,\n            i.competences,\n            i.projects,\n    \t\ti.walletAddress,\n    \t\ti.createdAt,\n    \t\ti.updatedAt\n    \t);\n    }\n\n\n\n    /**\n     * Return the profile information of the caller.\n     */\n    function getOwnProfile() checkSenderIsRegistered public view\n    returns(\n    \tuint,\n    \tstring,\n    \tbytes32,\n        string,\n        string,\n        string,\n        string,\n    \taddress,\n    \tuint,\n    \tuint\n    ) {\n    \tuint id = usersIds[msg.sender];\n\n    \treturn getUserById(id);\n    }\n\n\n\n    /**\n     * Check if the user that is calling the smart contract is registered.\n     */\n    function isRegistered() public view returns (bool)\n    {\n    \treturn (usersIds[msg.sender] != 0);\n    }\n\n\n\n    /**\n     * Return the number of total registered users.\n     */\n    function totalUsers() public view returns (uint)\n    {\n        return users.length - 1;\n    }\n\n}\n",
  "sourcePath": "/home/che/ethereum-vuejs-dapp/contracts/Users.sol",
  "compiler": {
    "name": "solc",
    "version": "0.4.24+commit.e67f0147.Emscripten.clang"
  },
  "schemaVersion": "2.0.1",
  "updatedAt": "2018-12-16T15:15:00.516Z"
}